{
  "transactions": [
    {
      "hash": "0x04adee78bc9ada01c35b4d8961848d9212d760b1e36b786e7c3b8563f7219d4e",
      "transactionType": "CALL",
      "contractName": null,
      "contractAddress": "0x696907c68d922c289582da6c35e4c49e3df44800",
      "function": "addStrategy(bytes32,uint256,uint256[],uint256[],uint64[],address[])",
      "arguments": [
        "0x7f19cbf62583730e067aeefeb4db801b382ab96579a77a223fc5f3e7738f72a2",
        "1",
        "[84532, 11155111]",
        "[40, 60]",
        "[10344971235874465080, 16015286601757825753]",
        "[0x696907c68D922c289582dA6c35E4c49E3df44800, 0x92A1Fd49D8A7e6ecf3414754257bBF7652750800]"
      ],
      "transaction": {
        "from": "0x7d4a5b2288e6e890d07ab35a5c18990c15dcc04e",
        "to": "0x696907c68d922c289582da6c35e4c49e3df44800",
        "gas": "0x5e81d",
        "value": "0x0",
        "input": "0xc66197a57f19cbf62583730e067aeefeb4db801b382ab96579a77a223fc5f3e7738f72a2000000000000000000000000000000000000000000000000000000000000000100000000000000000000000000000000000000000000000000000000000000c00000000000000000000000000000000000000000000000000000000000000120000000000000000000000000000000000000000000000000000000000000018000000000000000000000000000000000000000000000000000000000000001e000000000000000000000000000000000000000000000000000000000000000020000000000000000000000000000000000000000000000000000000000014a340000000000000000000000000000000000000000000000000000000000aa36a700000000000000000000000000000000000000000000000000000000000000020000000000000000000000000000000000000000000000000000000000000028000000000000000000000000000000000000000000000000000000000000003c00000000000000000000000000000000000000000000000000000000000000020000000000000000000000000000000000000000000000008f90b8876dee6538000000000000000000000000000000000000000000000000de41ba4fc9d91ad90000000000000000000000000000000000000000000000000000000000000002000000000000000000000000696907c68d922c289582da6c35e4c49e3df4480000000000000000000000000092a1fd49d8a7e6ecf3414754257bbf7652750800",
        "nonce": "0x2",
        "chainId": "0x14a34"
      },
      "additionalContracts": [],
      "isFixedGasLimit": false
    }
  ],
  "receipts": [
    {
      "status": "0x1",
      "cumulativeGasUsed": "0x139f5b3",
      "logs": [
        {
          "address": "0x696907c68d922c289582da6c35e4c49e3df44800",
          "topics": [
            "0xb85cad7b43fc29e1b0d15ee1bcd0ce8e0d3b300d52349e071ccc5615ab2d346e"
          ],
          "data": "0x7f19cbf62583730e067aeefeb4db801b382ab96579a77a223fc5f3e7738f72a2000000000000000000000000000000000000000000000000000000000000000100000000000000000000000000000000000000000000000000000000000000a00000000000000000000000000000000000000000000000000000000000000100000000000000000000000000000000000000000000000000000000000000016000000000000000000000000000000000000000000000000000000000000000020000000000000000000000000000000000000000000000000000000000014a340000000000000000000000000000000000000000000000000000000000aa36a700000000000000000000000000000000000000000000000000000000000000020000000000000000000000000000000000000000000000000000000000000028000000000000000000000000000000000000000000000000000000000000003c0000000000000000000000000000000000000000000000000000000000000002000000000000000000000000696907c68d922c289582da6c35e4c49e3df4480000000000000000000000000092a1fd49d8a7e6ecf3414754257bbf7652750800",
          "blockHash": "0x492f38bb69cf4e61bccf830f0a8950e82c5ff201ec3e7acf44f7d96c687ab210",
          "blockNumber": "0xea60be",
          "transactionHash": "0x04adee78bc9ada01c35b4d8961848d9212d760b1e36b786e7c3b8563f7219d4e",
          "transactionIndex": "0xd",
          "logIndex": "0x93",
          "removed": false
        }
      ],
      "logsBloom": "0x00000000000000000000000000000000000000000000000000000020010000000000000000000000000000000000000000000000000000000000000000000000000000000000000000000000000000000000000000000000000000000000000000000000000000000000000000000000000000000000000000000000000000000000000000000000000000000000020000000000000000000000000000000000400000008000000000000000000000000000000000000000000000000000000000000000000004000000000000000000000000000000000000000000000000000000000000000000000000000000000000000000000000000000000000000000",
      "type": "0x2",
      "transactionHash": "0x04adee78bc9ada01c35b4d8961848d9212d760b1e36b786e7c3b8563f7219d4e",
      "transactionIndex": "0xd",
      "blockHash": "0x492f38bb69cf4e61bccf830f0a8950e82c5ff201ec3e7acf44f7d96c687ab210",
      "blockNumber": "0xea60be",
      "gasUsed": "0x446bf",
      "effectiveGasPrice": "0xba3cf",
      "from": "0x7d4a5b2288e6e890d07ab35a5c18990c15dcc04e",
      "to": "0x696907c68d922c289582da6c35e4c49e3df44800",
      "contractAddress": null,
      "l1BaseFeeScalar": "0x44d",
      "l1BlobBaseFee": "0x2823160edc",
      "l1BlobBaseFeeScalar": "0xa118b",
      "l1Fee": "0x157cf12ab461",
      "l1GasPrice": "0x14752e06c",
      "l1GasUsed": "0xcf8"
    }
  ],
  "libraries": [],
  "pending": [],
  "returns": {},
  "timestamp": 1726488673,
  "chain": 84532,
  "commit": "1f10d4e"
}