{
  "transactions": [
    {
      "hash": "0xd6e9393df24d38376b8e551c7a9d2741fcc1e19927453498f70ca43d5f01f012",
      "transactionType": "CALL",
      "contractName": null,
      "contractAddress": "0xca6dbbe730e31fdaacaa096821199eeed5ad84ae",
      "function": "initialize((address,address,uint24,int24,address),uint160,bytes)",
      "arguments": [
        "(0x1c7D4B196Cb0C7B01d743Fbc6116a902379C7238, 0xFd57b4ddBf88a4e07fF4e34C487b99af2Fe82a05, 3000, 60, 0x92A1Fd49D8A7e6ecf3414754257bBF7652750800)",
        "79228162514264337593543950336",
        "0x"
      ],
      "transaction": {
        "from": "0x7d4a5b2288e6e890d07ab35a5c18990c15dcc04e",
        "to": "0xca6dbbe730e31fdaacaa096821199eeed5ad84ae",
        "gas": "0x12b51",
        "value": "0x0",
        "input": "0x695c5bf50000000000000000000000001c7d4b196cb0c7b01d743fbc6116a902379c7238000000000000000000000000fd57b4ddbf88a4e07ff4e34c487b99af2fe82a050000000000000000000000000000000000000000000000000000000000000bb8000000000000000000000000000000000000000000000000000000000000003c00000000000000000000000092a1fd49d8a7e6ecf3414754257bbf7652750800000000000000000000000000000000000000000100000000000000000000000000000000000000000000000000000000000000000000000000000000000000e00000000000000000000000000000000000000000000000000000000000000000",
        "nonce": "0x1",
        "chainId": "0xaa36a7"
      },
      "additionalContracts": [],
      "isFixedGasLimit": false
    }
  ],
  "receipts": [
    {
      "status": "0x1",
      "cumulativeGasUsed": "0xb64783",
      "logs": [
        {
          "address": "0xca6dbbe730e31fdaacaa096821199eeed5ad84ae",
          "topics": [
            "0xdd466e674ea557f56295e2d0218a125ea4b4f0f6f3307b95f85e6110838d6438",
            "0x33736e913fc79be0466f7267344eb4fa5fa66d03c3562c8ccf6bd7f883c97146",
            "0x0000000000000000000000001c7d4b196cb0c7b01d743fbc6116a902379c7238",
            "0x000000000000000000000000fd57b4ddbf88a4e07ff4e34c487b99af2fe82a05"
          ],
          "data": "0x0000000000000000000000000000000000000000000000000000000000000bb8000000000000000000000000000000000000000000000000000000000000003c00000000000000000000000092a1fd49d8a7e6ecf3414754257bbf765275080000000000000000000000000000000000000000010000000000000000000000000000000000000000000000000000000000000000000000000000000000000000",
          "blockHash": "0x129301aed2acbf1fd3c905482215afdf3dec87fdf9ada9dd65562dfbfeef6785",
          "blockNumber": "0x664654",
          "transactionHash": "0xd6e9393df24d38376b8e551c7a9d2741fcc1e19927453498f70ca43d5f01f012",
          "transactionIndex": "0x59",
          "logIndex": "0x6e",
          "removed": false
        }
      ],
      "logsBloom": "0x00000000000000000000000000000000000000000000000000000000000000000000000020000000100000000000000000000000000004000000000000000000100000000000000000002000000000000000000000000000000000000000000000004000000000000000000000000000000000800000000000000000000000000000000000000008000000000000000004000001000000000000000000200000000000000000000000000000000000000000008000000000000000000000000000000000000000000000000000000000000000000000000000000000400000000000000000000000000000000000000000000000040000000000100000000000",
      "type": "0x2",
      "transactionHash": "0xd6e9393df24d38376b8e551c7a9d2741fcc1e19927453498f70ca43d5f01f012",
      "transactionIndex": "0x59",
      "blockHash": "0x129301aed2acbf1fd3c905482215afdf3dec87fdf9ada9dd65562dfbfeef6785",
      "blockNumber": "0x664654",
      "gasUsed": "0xd8b4",
      "effectiveGasPrice": "0x1505fe61e",
      "from": "0x7d4a5b2288e6e890d07ab35a5c18990c15dcc04e",
      "to": "0xca6dbbe730e31fdaacaa096821199eeed5ad84ae",
      "contractAddress": null
    }
  ],
  "libraries": [],
  "pending": [],
  "returns": {},
  "timestamp": 1726488602,
  "chain": 11155111,
  "commit": "1f10d4e"
}