{
  "transactions": [
    {
      "hash": "0x2730d3fb89f36e11b846d0ce476c7211bdc9bf503ce679fe57046778bed31622",
      "transactionType": "CALL",
      "contractName": null,
      "contractAddress": "0x92a1fd49d8a7e6ecf3414754257bbf7652750800",
      "function": "addStrategy(bytes32,uint256,uint256[],uint256[],uint64[],address[])",
      "arguments": [
        "0x33736e913fc79be0466f7267344eb4fa5fa66d03c3562c8ccf6bd7f883c97146",
        "1",
        "[84532, 11155111]",
        "[40, 60]",
        "[10344971235874465080, 16015286601757825753]",
        "[0x696907c68D922c289582dA6c35E4c49E3df44800, 0x92A1Fd49D8A7e6ecf3414754257bBF7652750800]"
      ],
      "transaction": {
        "from": "0x7d4a5b2288e6e890d07ab35a5c18990c15dcc04e",
        "to": "0x92a1fd49d8a7e6ecf3414754257bbf7652750800",
        "gas": "0x5e81d",
        "value": "0x0",
        "input": "0xc66197a533736e913fc79be0466f7267344eb4fa5fa66d03c3562c8ccf6bd7f883c97146000000000000000000000000000000000000000000000000000000000000000100000000000000000000000000000000000000000000000000000000000000c00000000000000000000000000000000000000000000000000000000000000120000000000000000000000000000000000000000000000000000000000000018000000000000000000000000000000000000000000000000000000000000001e000000000000000000000000000000000000000000000000000000000000000020000000000000000000000000000000000000000000000000000000000014a340000000000000000000000000000000000000000000000000000000000aa36a700000000000000000000000000000000000000000000000000000000000000020000000000000000000000000000000000000000000000000000000000000028000000000000000000000000000000000000000000000000000000000000003c00000000000000000000000000000000000000000000000000000000000000020000000000000000000000000000000000000000000000008f90b8876dee6538000000000000000000000000000000000000000000000000de41ba4fc9d91ad90000000000000000000000000000000000000000000000000000000000000002000000000000000000000000696907c68d922c289582da6c35e4c49e3df4480000000000000000000000000092a1fd49d8a7e6ecf3414754257bbf7652750800",
        "nonce": "0x2",
        "chainId": "0xaa36a7"
      },
      "additionalContracts": [],
      "isFixedGasLimit": false
    }
  ],
  "receipts": [
    {
      "status": "0x1",
      "cumulativeGasUsed": "0x994884",
      "logs": [
        {
          "address": "0x92a1fd49d8a7e6ecf3414754257bbf7652750800",
          "topics": [
            "0xb85cad7b43fc29e1b0d15ee1bcd0ce8e0d3b300d52349e071ccc5615ab2d346e"
          ],
          "data": "0x33736e913fc79be0466f7267344eb4fa5fa66d03c3562c8ccf6bd7f883c97146000000000000000000000000000000000000000000000000000000000000000100000000000000000000000000000000000000000000000000000000000000a00000000000000000000000000000000000000000000000000000000000000100000000000000000000000000000000000000000000000000000000000000016000000000000000000000000000000000000000000000000000000000000000020000000000000000000000000000000000000000000000000000000000014a340000000000000000000000000000000000000000000000000000000000aa36a700000000000000000000000000000000000000000000000000000000000000020000000000000000000000000000000000000000000000000000000000000028000000000000000000000000000000000000000000000000000000000000003c0000000000000000000000000000000000000000000000000000000000000002000000000000000000000000696907c68d922c289582da6c35e4c49e3df4480000000000000000000000000092a1fd49d8a7e6ecf3414754257bbf7652750800",
          "blockHash": "0xf2257358acf3df859ba6efd3de2a1afe58cef731abc6635b6bb183f2ebb4f781",
          "blockNumber": "0x664664",
          "transactionHash": "0x2730d3fb89f36e11b846d0ce476c7211bdc9bf503ce679fe57046778bed31622",
          "transactionIndex": "0x43",
          "logIndex": "0x5c",
          "removed": false
        }
      ],
      "logsBloom": "0x00000000000000000000000000000000000000000000000000000020000000000000000000000000000000000000000000000000000000000000000000000000000000000000000000000000000000000000000000000000000000200000000000000000000000000000000000000000000000000000000000000000000000000000000000000000000000000000020000000000000000000000000000000000000000008000000000000000000000000000000000000000000000000000000000000000000000000000000000000000000000000000000000001000000000002000000000000000000000000000000000000000000000000000000000000000",
      "type": "0x2",
      "transactionHash": "0x2730d3fb89f36e11b846d0ce476c7211bdc9bf503ce679fe57046778bed31622",
      "transactionIndex": "0x43",
      "blockHash": "0xf2257358acf3df859ba6efd3de2a1afe58cef731abc6635b6bb183f2ebb4f781",
      "blockNumber": "0x664664",
      "gasUsed": "0x446bf",
      "effectiveGasPrice": "0x17537f506",
      "from": "0x7d4a5b2288e6e890d07ab35a5c18990c15dcc04e",
      "to": "0x92a1fd49d8a7e6ecf3414754257bbf7652750800",
      "contractAddress": null
    }
  ],
  "libraries": [],
  "pending": [],
  "returns": {},
  "timestamp": 1726488810,
  "chain": 11155111,
  "commit": "1f10d4e"
}