{
  "transactions": [
    {
      "hash": "0x40385eeb1cd852f9789714ba4c882ab6a0edfb074b417fbc307b285aae5b43b1",
      "transactionType": "CALL",
      "contractName": null,
      "contractAddress": "0x95f211699d44e4b4afcb47b16417724de12d099b",
      "function": "initialize((address,address,uint24,int24,address),uint160,bytes)",
      "arguments": [
        "(0x036CbD53842c5426634e7929541eC2318f3dCF7e, 0x88A2d74F47a237a62e7A51cdDa67270CE381555e, 3000, 60, 0x696907c68D922c289582dA6c35E4c49E3df44800)",
        "79228162514264337593543950336",
        "0x"
      ],
      "transaction": {
        "from": "0x7d4a5b2288e6e890d07ab35a5c18990c15dcc04e",
        "to": "0x95f211699d44e4b4afcb47b16417724de12d099b",
        "gas": "0x12b51",
        "value": "0x0",
        "input": "0x695c5bf5000000000000000000000000036cbd53842c5426634e7929541ec2318f3dcf7e00000000000000000000000088a2d74f47a237a62e7a51cdda67270ce381555e0000000000000000000000000000000000000000000000000000000000000bb8000000000000000000000000000000000000000000000000000000000000003c000000000000000000000000696907c68d922c289582da6c35e4c49e3df44800000000000000000000000000000000000000000100000000000000000000000000000000000000000000000000000000000000000000000000000000000000e00000000000000000000000000000000000000000000000000000000000000000",
        "nonce": "0x1",
        "chainId": "0x14a34"
      },
      "additionalContracts": [],
      "isFixedGasLimit": false
    }
  ],
  "receipts": [
    {
      "status": "0x1",
      "cumulativeGasUsed": "0x1189a2",
      "logs": [
        {
          "address": "0x95f211699d44e4b4afcb47b16417724de12d099b",
          "topics": [
            "0xdd466e674ea557f56295e2d0218a125ea4b4f0f6f3307b95f85e6110838d6438",
            "0x7f19cbf62583730e067aeefeb4db801b382ab96579a77a223fc5f3e7738f72a2",
            "0x000000000000000000000000036cbd53842c5426634e7929541ec2318f3dcf7e",
            "0x00000000000000000000000088a2d74f47a237a62e7a51cdda67270ce381555e"
          ],
          "data": "0x0000000000000000000000000000000000000000000000000000000000000bb8000000000000000000000000000000000000000000000000000000000000003c000000000000000000000000696907c68d922c289582da6c35e4c49e3df4480000000000000000000000000000000000000000010000000000000000000000000000000000000000000000000000000000000000000000000000000000000000",
          "blockHash": "0x4f7feb6273cde3fe47a8b426a7de289f937d9fca6e8e04e10a1b8ff2aa86fcf7",
          "blockNumber": "0xea6081",
          "transactionHash": "0x40385eeb1cd852f9789714ba4c882ab6a0edfb074b417fbc307b285aae5b43b1",
          "transactionIndex": "0xc",
          "logIndex": "0x2",
          "removed": false
        }
      ],
      "logsBloom": "0x00000000000000000000000000000000004000000400000000000000000000000000100000000000000000000000000000000000000000000000000000000000000000000000000000000010000000000000000000000000008000080000000000000000000000000040000000000000000000000000000000000000000000000000000040000008000000000000000000200001000000000000000000200000000000000000000000000000000800000000000000000000100000000000000000000000000000000000000000000000000000000000000000000000000000000000000000000000000000000040000000000000000000000000000000000000",
      "type": "0x2",
      "transactionHash": "0x40385eeb1cd852f9789714ba4c882ab6a0edfb074b417fbc307b285aae5b43b1",
      "transactionIndex": "0xc",
      "blockHash": "0x4f7feb6273cde3fe47a8b426a7de289f937d9fca6e8e04e10a1b8ff2aa86fcf7",
      "blockNumber": "0xea6081",
      "gasUsed": "0xd8b4",
      "effectiveGasPrice": "0xaf5e7",
      "from": "0x7d4a5b2288e6e890d07ab35a5c18990c15dcc04e",
      "to": "0x95f211699d44e4b4afcb47b16417724de12d099b",
      "contractAddress": null,
      "l1BaseFeeScalar": "0x44d",
      "l1BlobBaseFee": "0x26977e0ac5",
      "l1BlobBaseFeeScalar": "0xa118b",
      "l1Fee": "0xeea1a83bd65",
      "l1GasPrice": "0x139c998c0",
      "l1GasUsed": "0x95c"
    }
  ],
  "libraries": [],
  "pending": [],
  "returns": {},
  "timestamp": 1726488553,
  "chain": 84532,
  "commit": "1f10d4e"
}